:100000000C94B1280C94E2280C94E2280C94E22879
:100010000C94E2280C94E2280C94E2280C94E22838
:100020000C94E2280C94E2280C94E2280C94E22828
:100030000C94E2280C94E2280C94E2280C94E22818
:100040000C94E2280C9448470C94E2280C94E22883
:100050000C94E2280C94E2280C941B530D94050593
:100060000C94E2280C9458B50C94E2280C94E228E5
:100070000C94E2280C94E2280C94E2280C94E228D8
:100080000C9468390C94E2280C94E2280C94E22831
:100090000C94E2280C94E2280C94E2280C94E228B8
:1000A0000C94E2280C94E2280C943A390C94E2283F
:1000B0000C94E2280C94E2280C94E2280C940C395D
:1000C0000C94E2280C94E2280C94E2280C94E22888
:1000D0000C94E2280C94E2280C94E2280C94E22878
:1000E0000C94E228084AD73B3BCE016E84BCBFFD8E
:1000F000C12F3D6C74319ABD56833DDA3D00C77FF8
:1001000011BED9E4BB4C3E916BAAAABE0000008090
:100110003F05A84CCDB2D44EB93836A9020C50B91F
:10012000918688083CA6AAAA2ABE000000803F004B
:100130000D9400020C94ECF60C9409CC0C9488BC41
:100140000C94B9E10C9463F60C9445B90C94FDCB76
:100150000D94A5010C94E4F60C9477F70C942DBE45
:100160000C94D6F60C9486EE0C942D2C0C94DDB7E2
:100170000C94BCE70D94C50B0C9428BB0C94C2E006
:100180000C94CCF60C9453C30C94B8B90C948EBC5C
:100190000C94BBF60D94701A0C94BFF60C946EE59B
:1001A0000D9428020D94F1010C94C3F60C9422BB1B
:1001B0000C94F6F60D941E020C94E5B70C94F2F62E
:1001C0000C94DDB60C9472DD0C9403CC0C9423BA21
:1001D0000C94B7F60C94AEDC0C94EDF10D94E1099F
:1001E0000C94F9BE0C94F5DB0C94A8EF0C94B1F6CA
:1001F0000C944FDF0C9434BD0C94FECE0C94502A1A
:100200000C9432F40C9403D50C9499E90D941402D7
:100210000C9465F60C94C6F60C9439F00C9466F6C2
:100220000C94C0410D94DD010C9445BB0C94E0BAD4
:100230000C94062C0C94C8E00C94D1D30C94CAF006
:100240000D94CB010C9459DF0C9466C70C94B6E066
:100250000C94BCE00C940FC60C9460E30D949801D0
:100260000C944DC30C9494BC0C9462B60D94320261
:100270000C943CDB0C9417EF0C9419C50C9482BCC5
:100280000C94D0F60C94EB2B0C94F3BA0C9426C976
:100290000C94DFB70C944CD10C94E8F60D94B90192
:1002A0000D94C3010C94F1F60C94DEF60C94E3B7B4
:1002B0000C94E1B70C9415CC0D94A0010C940FCCC8
:1002C0000C9425D00C9436DE0C94DAF60C9464ED84
:1002D0000C94F5ED0D94181C0D94D3010C9450C39F
:1002E0000D94AF010D940A020C94EA2B0C94D3ECFC
:1002F0000D94E7010C941FBA0C944DDF4E414E490A
:100300004E495459494E46CDCCCC3D0AD7233C17D3
:10031000B7D13877CC2B329595E6241FB14F0A0020
:100320000020410000C84200401C4620BCBE4CCA10
:100330001B0E5AAEC59D7400407A10F35A00A0728D
:100340004E18090010A5D4E80000E8764817000010
:10035000E40B54020000CA9A3B000000E1F50500DE
:100360000080969800000040420F000000A0860127
:10037000000000102700000000E8030000000064F7
:1003800000000000000A0000000000010000000062
:10039000002C76D888DC674F0823DFC1DFAE59E137
:1003A000B1B796E5E3E453C63AE651997696E8E6A6
:1003B000C28426EB898C9B62ED407C6FFCEFBC9C79
:1003C0009F40F2BAA56FA5F490055A2AF75C936B8B
:1003D0006CF9676DC11BFCE0E40D47FEF520E6B546
:1003E00000D0ED902E0300943577050080841E0820
:1003F0000000204E0A000000C80C333333330F983E
:100400006E12831141EF8D2114893BE65516CFFE04
:10041000E6DB18D1844B381BF77C1D901DA4BBE490
:1004200024203284725E228100C9F124ECA1E53DD2
:1004300027434F4D4D554E49434154494F4E00447B
:10044000525952554E004552524F525300494E4652
:100450004F004543484F002569730025696D2025ED
:100460006973002569682025696D20256973002559
:100470006964202569682025696D20256973002538
:10048000697920256964202569682025696D202502
:100490006973004142474542524F4348454E00412F
:1004A0004E474548414C54454E005072696E746544
:1004B000722073746F707065642064756520746F4A
:1004C000206572726F72732E204669782074686599
:1004D000206572726F7220616E6420757365204DA5
:1004E00039393920746F20726573746172742E20EB
:1004F0002854656D7065726174757265206973202A
:1005000072657365742E205365742069742061666A
:100510007465722072657374617274696E67290AFA
:10052000004E6F204C696E65204E756D62657220BD
:100530007769746820636865636B73756D2C204CF4
:10054000617374204C696E653A20004E6F204368D9
:1005500065636B73756D2077697468206C696E656F
:10056000206E756D6265722C204C617374204C692D
:100570006E653A2000636865636B73756D206D6905
:10058000736D617463682C204C617374204C696EC8
:10059000653A20004C696E65204E756D626572206B
:1005A0006973206E6F74204C617374204C696E65A2
:1005B000204E756D6265722B312C204C6173742056
:1005C0004C696E653A20004D313130004D333100B9
:1005D0004D383420582059205A2045005446207266
:1005E000656164206572726F720A00446F6E6520E7
:1005F0007072696E74696E672066696C650A0020A6
:10060000496E76616C696420657874727564657290
:10061000200000000000000000000000000000407A
:1006200003440000FF430000FF43473020463336B9
:100630003030205832353520593235350042696C1A
:10064000696E656172204C6576656C696E672047DE
:100650007269643A0A0020706F736974696F6E2062
:100660006F7574206F662072616E67652E0A003F99
:1006700050726F62652000566F7268657220257334
:100680002573257320686F6D656E0020686F6D653A
:100690006E0A005A0059005800566F726865722041
:1006A0000052756E6E696E6720696E204452592D36
:1006B00052554E206D6F64650A00473239204175EE
:1006C000746F20426564204C6576656C696E670ABC
:1006D0000028422961636B00284629726F6E7400FE
:1006E0002852296967687400284C29656674003FA0
:1006F0002856296572626F7365206C6576656C207B
:10070000697320696D706C61757369626C6520280E
:10071000302D34292E0A00426164205A2076616C03
:1007200075650A004E6F2062696C696E65617220A2
:10073000677269640A0044656C6574696F6E20664F
:1007400061696C65642C2046696C653A20004669D5
:100750006C652064656C657465643A006F70656EE5
:10076000206661696C65642C2046696C653A2000DE
:100770006D0046696C616D656E7420757365643AD1
:10078000200053746174733A20002C204C6F6E6704
:10079000657374206A6F623A2000546F74616C2034
:1007A00074696D653A200053746174733A20002CAB
:1007B000204661696C65643A20002C2046696E69A8
:1007C000736865643A20005072696E74733A200051
:1007D00053746174733A2000202F002042403A0085
:1007E00020403A0048656174696E6720646F6E65E9
:1007F0002E0020573A004578747275646572202582
:10080000730043523130205335206265726569743C
:100810000042656420646F6E652E0020573A0042E6
:1008200065642048656174696E672E00205A3A003D
:1008300020593A0020436F756E7420583A002045C5
:100840003A00205A3A0020593A00583A0043617061
:100850003A454D455247454E43595F5041525345E5
:10086000523A300A004361703A434153455F4C4964
:100870004748545F4252494748544E4553533A30D3
:100880000A004361703A544F47474C455F4C494713
:100890004854533A300A004361703A534F46545714
:1008A0004152455F504F5745523A300A00436170FC
:1008B0003A4C4556454C494E475F444154413A31C4
:1008C0000A004361703A5A5F50524F42453A310A2A
:1008D000004361703A4155544F4C4556454C3A31AE
:1008E0000A004361703A5052494E545F4A4F423AAF
:1008F000310A004361703A50524F47524553533AC0
:10090000300A004361703A4155544F5245504F529E
:10091000545F54454D503A310A004361703A4545A1
:1009200050524F4D3A310A004649524D57415245B7
:100930005F4E414D453A4D61726C696E20312E31EA
:100940002E36424C5F56332E6275696C642D34200E
:10095000534F555243455F434F44455F55524C3AC0
:1009600068747470733A2F2F6769746875622E63A8
:100970006F6D2F4665686E64727569642F4D617284
:100980006C696E2050524F544F434F4C5F56455246
:1009900053494F4E3A312E30204D414348494E4540
:1009A0005F545950453A4352313020533520455811
:1009B0005452554445525F434F554E543A31205599
:1009C0005549443A63656465326132662D3431615C
:1009D000322D343734382D396231322D6335356359
:1009E00036326633363766660A00205A00205900D0
:1009F000580020204D61783A2000205A00205900EC
:100A0000580020204D696E3A200045696E004175FE
:100A10007300536F667420656E6473746F70733AFD
:100A2000200020643A0020693A0020703A002364D4
:100A30006566696E65202044454641554C545F4BC0
:100A400064200023646566696E6520204445464144
:100A5000554C545F4B69200023646566696E6520C0
:100A60002044454641554C545F4B7020005049444A
:100A7000204175746F74756E652066696E69736860
:100A80006564212050757420746865206C617374EE
:100A9000204B702C204B6920616E64204B642063D6
:100AA0006F6E7374616E74732066726F6D20626511
:100AB0006C6F7720696E746F20436F6E666967751F
:100AC000726174696F6E2E680A0050494420417546
:100AD000746F74756E65206661696C65642120743D
:100AE000696D656F75740A00504944204175746FD3
:100AF00074756E65206661696C6564212054656D4E
:100B0000706572617475726520746F6F20686967B3
:100B1000680A00204B643A2000204B693A200020EC
:100B20004B703A20000A20436C6173736963205054
:100B30004944200A002054753A2000204B753A2081
:100B400000206D61783A2000206D696E3A20002007
:100B5000643A200020626961733A20004175730A8B
:100B600000466164652048656967687420004265D5
:100B700064204C6576656C696E6720004661696C1F
:100B8000656420746F20656E61626C6520426564E7
:100B9000204C6576656C696E670A004D6573682048
:100BA000706F696E742063616E6E6F742062652071
:100BB0007265736F6C7665640A004D34323120695A
:100BC0006E636F727265637420706172616D6574BB
:100BD00065722075736167650A004D3630302048B4
:100BE0006F74656E6420746F6F20636F6C64207423
:100BF0006F206368616E67652066696C616D656E04
:100C0000740A0047322F473320626164207061729A
:100C1000616D65746572730A0057617274656E2E3A
:100C20002E2E0053656E736F72206175737365723B
:100C300068616C620A0053656E736F722061757330
:100C400073657268616C6200473238205A20466FC3
:100C50007262696464656E0A00473238205A204621
:100C60006F7262696464656E00205A3A20002059F0
:100C70003A200042656420583A20004D6573682090
:100C8000706F696E742063616E6E6F742062652090
:100C90007265736F6C7665640A004352313020537D
:100CA000352062657265697400447275636B666FA6
:100CB00072747365747A756E67005761727465201B
:100CC000617566204E75747A6572004D6F746F722F
:100CD000656E2065696E6765736368616C746574C1
:100CE00000456E642066696C65206C6973740A0047
:100CF000426567696E2066696C65206C6973740A69
:100D0000005446207072696E74696E67206279744F
:100D10006520004E6F74205446207072696E7469AD
:100D20006E670A005072696E742074696D653A20AE
:100D30000050726F7465637465642050696E0A00B8
:100D400045787472756465722025730043523130A2
:100D500020533520626572656974006F66660052C3
:100D6000044D0446043F04310444454255473A00CB
:100D70004142474542524F4348454E004D31313381
:100D80002053006F6B0043523130205335204175A2
:100D9000732E002F2F20004D31343520533C696EC7
:100DA0006465783E206F7574206F662072616E678F
:100DB000652028302D31290A0053657474696E67E7
:100DC0002054726176656C20416363656C65726165
:100DD00074696F6E3A200053657474696E672052AF
:100DE00065747261637420416363656C65726174DC
:100DF000696F6E3A200053657474696E6720507293
:100E0000696E7420416363656C65726174696F6EAD
:100E10003A200053657474696E67205072696E746D
:100E200020616E642054726176656C204163636555
:100E30006C65726174696F6E3A2000000136372666
:100E400003FF3C3D380EFF2E303E12FFFF0C080919
:100E5000FFFFFF1A1C18FFFF08440AFF43FFFFFFB4
:100E6000FFFFFF3A200020536572766F2000206F4D
:100E70007574206F662072616E67650A0053657233
:100E8000766F200043290A0061626C656420286D3A
:100E9000696E2074656D702000436F6C6420657806
:100EA0007472756465732061726520004572723AD0
:100EB00020546F6F206661722100546F6F2066614D
:100EC000722066726F6D207265666572656E63650D
:100ED00020706F696E740A00486F6D657665727375
:100EE00061747A20616B746976003A20007A5F6DD4
:100EF000696E3A20202D3230207A5F6D61783A2079
:100F0000203230005A205665727361747A20004E88
:100F10006F2063617365206C696768740A004163C0
:100F2000746976652045787472756465723A20003C
:100F3000556E6B6E6F776E20636F6D6D616E643A88
:100F4000202200526573656E643A20006F6B0020AA
:100F5000746F6F206C6F6E6720657874727573693B
:100F60006F6E2070726576656E7465640A0020632A
:100F70006F6C6420657874727573696F6E2070721F
:100F80006576656E7465640A00627573793A2070DF
:100F9000617573656420666F7220696E7075740A7E
:100FA00000627573793A2070617573656420666FAD
:100FB0007220757365720A00627573793A207072D7
:100FC0006F63657373696E670A004D363030004198
:100FD00042474542524F4348454E004B494C4C20F6
:100FE000636175736564206279204B494C4C2062C3
:100FF0007574746F6E2F70696E0A004142474542E6
:10100000524F4348454E004B494C4C206361757329
:10101000656420627920746F6F206D756368206944
:101020006E6163746976652074696D65202D206337
:10103000757272656E7420636F6D6D616E643A20B7
:1010400000506C6561736520726573657400505261
:10105000494E5445522048414C5445440050726911
:101060006E7465722068616C7465642E206B696CA7
:101070006C28292063616C6C6564210A0062696ECA
:10108000004D31313720494E56414C4944204441AE
:1010900054412E004D313137205072696E74696EA3
:1010A000672E2E2E004730205A25730047323820F5
:1010B0005830205930004730205A257300473932C4
:1010C000205A2573204525730062696E00000000D8
:1010D000000000000000000000000020420000208E
:1010E0004200000041000000005761726E696E67A7
:1010F0003A20486F6D696E672042756D70204469B3
:101100007669736F72203C20310A000202040000ED
:10111000A0400000A0400000004000400344000048
:10112000FF430000FF43FFFFFF7C3C3E5E2B3D3F43
:101130002F5B5D3B2C2A225C004572726F72207718
:10114000726974696E6720746F20454550524F4D27
:10115000210A00290A002062797465733B206372BA
:1011600063200053657474696E67732053746F72E3
:101170006564202800202863616C63756C61746568
:101180006429210A0020213D2000454550524F4D41
:1011900020435243206D69736D61746368202D2074
:1011A0002873746F726564292000290A002062790F
:1011B0007465733B2063726320002073746F7265E3
:1011C000642073657474696E6773207265747269E4
:1011D00065766564202800204D61726C696E3D560D
:1011E0003431290A0028454550524F4D3D004545B0
:1011F00050524F4D2076657273696F6E206D697322
:101200006D61746368200048617264636F64656433
:101210002044656661756C742053657474696E67EB
:1012200073204C6F616465640A00F4010000F401EE
:10123000000064000000E803000000009643000086
:1012400096430000A0400000C8410000A0420000FA
:10125000A0420000C84300400A4320204D383531E9
:10126000205A005A2D50726F6265204F6666736572
:101270007420286D6D293A0A00204400204900207E
:10128000204D333031205000504944207365747430
:10129000696E67733A0A0020460020420020480029
:1012A00020204D3134352053004D617465726961E1
:1012B0006C2068656174757020706172616D657411
:1012C0006572733A0A00205A0020204D34323020D3
:1012D00053004175746F20426564204C6576656CDF
:1012E000696E673A0A00205A0020590020204D32CA
:1012F0003036205800486F6D65206F6666736574E0
:101300003A0A00204500205A0020590020580020A9
:10131000420020540020204D3230352053004164DB
:1013200076616E6365643A20533C6D696E5F6665F5
:101330006564726174653E20543C6D696E5F7472C1
:101340006176656C5F66656564726174653E2042B6
:101350003C6D696E5F7365676D656E745F74696D12
:10136000655F6D733E20583C6D61785F78795F6A88
:1013700065726B3E205A3C6D61785F7A5F6A657278
:101380006B3E20453C6D61785F655F6A65726B3EC0
:101390000A0020540020520020204D3230342050CA
:1013A00000416363656C65726174696F6E202875B6
:1013B0006E6974732F7332293A20503C7072696ED3
:1013C000745F616363656C3E20523C726574726148
:1013D00063745F616363656C3E20543C7472617634
:1013E000656C5F616363656C3E0A00204500205AAE
:1013F0000020590020204D3230312058004D6178B6
:10140000696D756D20416363656C65726174696FA8
:101410006E2028756E6974732F7332293A0A002082
:101420004500205A0020590020204D3230332058EA
:10143000004D6178696D756D2066656564726174D3
:1014400065732028756E6974732F73293A0A00201A
:101450004500205A0020590020204D3932205800E4
:1014600053746570732070657220756E69743A0AE2
:101470000020204D3230302044300A0020204D32F0
:1014800030302044002044697361626C65640A0056
:1014900046696C616D656E742073657474696E67FE
:1014A000733A0020204D3134392043203B20556EC3
:1014B00069747320696E2043656C736975730A00E3
:1014C0002020473231202020203B20556E69747344
:1014D00020696E206D6D0A0066696C616D656E74C1
:1014E0003A20007A5F6D696E3A2000795F6D696E0F
:1014F0003A2000785F6D696E3A20005265706F7215
:1015000074696E6720656E6473746F7020737461A4
:101510007475730A0020746F6F206C6F6E6720659E
:101520007874727573696F6E2070726576656E740B
:1015300065640A0020636F6C64206578747275734B
:10154000696F6E2070726576656E7465640A00243A
:10155000F4D43050C38E20C2A24017828B70111277
:101560007A910D816CD90AA861E108C758660761B4
:101570005143061E4B5D05C145A7041A41110409DC
:101580003D9803713931034036DB0265339102D453
:10159000305402802E1D02632CEE01752AC501B065
:1015A00028A001102781018F2564012B244B01E025
:1015B000223401AC211F018D200D01801FFC00840D
:1015C0001EED00971DDF00B81CD200E61BC60020F0
:1015D0001BBC00641AB200B219A8000A19A0006A64
:1015E000189900D117910040178B00B5168400316F
:1015F000167E00B31579003A157300C7146F0058B2
:10160000146A00EE1366008813630025135E00C79A
:10161000125B006C12570015125400C1115100707A
:10162000114F0021114B00D61049008D1047004684
:1016300010440002104200C00F4000800F3E0042E4
:101640000F3C00060F3B00CB0E3800930E37005CBA
:101650000E3500270E3400F30D3200C10D3100901D
:101660000D3000600D2E00320D2D00050D2C00D91F
:101670000C2B00AE0C2900850C29005C0C270035D2
:101680000C27000E0C2600E80B2400C40B2400A03D
:101690000B23007D0B23005A0B2100390B2100186E
:1016A0000B2000F80A1F00D90A1E00BB0A1E009D6D
:1016B0000A1D00800A1D00630A1C00470A1B002C3B
:1016C0000A1B00110A1A00F7091A00DD091900C4E3
:1016D000091900AB091900920917007B091800636A
:1016E0000917004C09160036091600200916000AD1
:1016F000091500F5081500E0081400CC081400B81E
:10170000081400A4081400900813007D0812006B50
:10171000081300580812004608120034081100236C
:101720000811001208110001081100F0071000E074
:10173000071000D0071000C0071000B0070F00A16D
:1017400007100091070E0083070F0074070F006554
:10175000070E0057070E0049070E003B070D002E2D
:10176000070E0020070D0013070D0006070D00F9F6
:10177000060C00ED060D00E0060C00D4060C00C8B7
:10178000060C00BC060C00B0060C00A4060B009969
:10179000060C008D060B0082060B0077060B006C12
:1017A000060B0061060A0057060B004C060A0042B1
:1017B000060A0038060A002E060A0024060A001A45
:1017C000060A001006090007060A00FD050900F4D4
:1017D000050900EB050900E2050900D9050900D05B
:1017E000050900C7050900BE050900B5050800ADDB
:1017F000050800A50509009C050800940508008C53
:10180000050800840508007C050800740508006CC4
:10181000050700650508005D050700560508004E30
:101820000507004705070040050800380507003197
:101830000507002A050700230507001C05060016FA
:101840000507000F0507000805060002050700FB55
:10185000040600F5040700EE040600E8040600E2B2
:10186000040700DB040600D5040600CF040600C907
:10187000040600C3040600BD040600B7040600B158
:10188000040500AC040600A6040600A00405009BA5
:1018900004060095040500900406008A04050085EE
:1018A000040500800406007A040500750405007034
:1018B0000405006B04050066040500610405005C76
:1018C00004050057040500520405004D04050048B6
:1018D000040500430405003E0404003A04050035F5
:1018E000040500300404002C040500270404002330
:1018F0000405001E0404001A040400160405001167
:101900000404000D0404000904050004040400009C
:10191000040400FC030400F8030400F4030400F0D2
:10192000030400EC030400E8030400E4030400E003
:10193000030400DC030400D8030400D4030400D033
:10194000030400CC030400C8030300C50303002400
:10195000F404D9201BC40C5C0E9804C4095F026512
:10196000077101F405F900FB04B30048048700C1C6
:101970000369005803550003034500BE023A008482
:1019800002310053022A002902250004022000E44B
:10199000011C00C8011900AF011700980114008450
:1019A000011300710110006101100051010E00438C
:1019B000010D0036010B002B010B0020010B00155F
:1019C0000109000C01090003010800FB000800F3F5
:1019D000000800EB000700E4000600DE000600D867
:1019E000000600D2000600CC000500C7000500C2BA
:1019F000000500BD000400B9000400B5000400B1FA
:101A0000000400AD000400A9000400A5000300A22A
:101A10000003009F0004009B000300980003009552
:101A200000020093000300900003008D0002008B71
:101A30000003008800020086000200840003008189
:101A40000002007F0002007D0002007B000200799E
:101A500000020077000100760002007400020072AC
:101A6000000100710002006F0002006D0001006CB7
:101A70000002006A000100690002006700010066C0
:101A800000010065000100640002006200010061C5
:101A9000000100600001005F0002005D0001005CC9
:101AA0000001005B0001005A0001005900010058CC
:101AB00000010057000100560001005500010054CC
:101AC00000010053000000530001005200010051CA
:101AD000000100500001004F0001004E0000004EC8
:101AE0000001004D0001004C0001004B0000004BC4
:101AF0000001004A000100490001004800000048C0
:101B000000010047000100460000004600010045BA
:101B100000000045000100440001004300000043B4
:101B200000010042000000420001004100000041AD
:101B3000000100400001003F0000003F0001003EA6
:101B40000000003E0001003D0000003D0001003C9F
:101B50000000003C0000003C0001003B0000003B96
:101B60000001003A0000003A00010039000000398D
:101B70000001003800000038000000380001003784
:101B8000000000370001003600000036000000367B
:101B90000001003500000035000000350001003470
:101BA0000000003400000034000100330000003366
:101BB000000000330001003200000032000000325B
:101BC0000001003100000031000000310001003050
:101BD00000000030000000300001002F0000002F46
:101BE0000000002F0000002F0001002E0000002E3A
:101BF0000000002E0001002D0000002D0000002D2F
:101C00000000002D0001002C0000002C0000002C22
:101C10000000002C0001002B0000002B0000002B16
:101C20000000002B0001002A0000002A0000002A0A
:101C30000000002A000100290000002900000029FE
:101C400000000029000000290001002800000028F1
:101C500000000028000000280000002800010027E4
:101C600000000027000000270000002700000027D8
:101C700000010026000000260000002600000026CB
:101C800000000026000100250000002500000025BE
:101C900000000025000000250000002500010024B0
:101CA00000000024000000240000002400000024A4
:101CB0000001002300000023000000230000002397
:101CC0000000002300000023000000230001002288
:101CD000000000220000002200000022000000227C
:101CE000000000220001002100000021000000216E
:101CF0000000002100000021000000210000002160
:101D00000001002000000020000000200000002052
:101D10000000002000000020000000200000002043
:101D20000001001F0000001F0000001F0000001F36
:101D30000000001F0000001F0000001F0001001E27
:101D40000000001E0000001E0000001E0000004DEC
:101D5000383420582059205A2045006265640A0012
:101D60002C2073797374656D2073746F7070656463
:101D700021204865617465725F49443A20004845F6
:101D8000495A454E204645484C47455343484C41E7
:101D900047454E0048656174696E67206661696CED
:101DA0006564004845495A454E204645484C4745DC
:101DB0005343484C4147454E0048656174696E671E
:101DC000206661696C65640070012C019001270137
:101DD000B0012201C0011D01F00118011002130120
:101DE00030020E016002090190020401C002FF00EE
:101DF0000003FA004003F5008003F000D003EB007D
:101E00002004E6007004E100E004DC004005D70097
:101E1000C005D2004006CD00D006C8008007C30030
:101E20003008BE00F008B900C009B400B00AAF0025
:101E3000B00BAA00D00CA500000EA000500F9B0014
:101E4000C01096005012910000148C00C01587003D
:101E5000B0178200B0197D00D01B7800001E7300FF
:101E600040206E0090226900F024640040275F004B
:101E700090295A00E02B5500102E500020304B00C6
:101E800010324600E033410090353C0010373700F7
:101E900070383200A0392D00B03A2800A03B230052
:101EA000603C1E00103D1900903D1400103E0F00D4
:101EB000703E0A00C03E0500003F0000403FFBFFAF
:101EC000803FF6FFC03FF1FF08204E4943485420B1
:101ED000455252454943485400546865726D616CDF
:101EE0002052756E61776179004572723A204D49D2
:101EF0004E54454D5020424544000820554E54450F
:101F00005253434852495454454E004D494E54454E
:101F10004D5020747269676765726564004245546C
:101F200054200820C39C42455253434852495454BC
:101F3000454E000820C39C424552534348524954E1
:101F400054454E004D415854454D502074726967B8
:101F500067657265640048617570746D656EC3BCB9
:101F600000AEAFB00048617570746D656EC3BC00A3
:101F70005800C1B220580058005900C1B220590081
:101F800059005A00C1B2205A005A0045787472753F
:101F90006465722000CCADBA0045787472756465D2
:101FA00072200044C3BC736500D3D40044C3BC7327
:101FB00065004265747400C4C70042657474004CC7
:101FC000C3BC6674657200D5D6D1D2004CC3BC6662
:101FD0007465720045696E7374656C6C756E6765C7
:101FE0006E00D8D90045696E7374656C6C756E6748
:101FF000656E004265776567756E6700DFB2004207
:1020000065776567756E6700566F726265726569A0
:1020100074756E6700A4A500566F7262657265697B
:1020200074756E670053442D447275636B20466F60
:1020300072747365747A756E6700F4F5CAF30053B1
:10204000442D447275636B20466F72747365747AA5
:10205000756E670053442D447275636B2041626254
:102060007275636800F2F6CAF30053442D4472752A
:10207000636B204162627275636800445255434B42
:10208000205041555349455254005052494E542016
:1020900050415553454400445255434B20504155FF
:1020A000534945525400202044C3BC73653A200074
:1020B00020204E6F7A7A6C653A2000202044C3BC01
:1020C00073653A20000000000000000000000000DE
:1020D0000000000000000000000000000000000000
:1020E00000000000100808000000042800000000A4
:1020F0000000100808F800000424000000000000A0
:10210000280808883FFE082000000000000024483E
:102110007E880000097F800000000000424808F827
:1021200000001144000000000000814818880000F1
:102130003EC40000000000017C481CF80000057F40
:1021400000000000000044482A881FFC08440000EA
:1021500000000000444848880000104400000000CF
:102160000000444808F800003F7F00000000000025
:1021700054480100000010440000000000004848DE
:10218000088400000044000000000000410848925C
:1021900000000744000000000000410848127FFFD3
:1021A000387F8000000000003F2887F000001040CA
:1021B00000000000000000100000000000400000CF
:1021C000000000000000000000000000000000000F
:1021D00000000000000000000000000000000000FF
:1021E00000000000000000000000000000000000EF
:1021F00000000000000000000000000000000000DF
:1022000000000000000000003E0000000701800008
:1022100000003C7E000042000000010180800000C0
:102220004221000042000000010000800000422026
:102230008000800000000100008000000420800079
:1022400080EE1E0F010383E1DC0018208000803245
:1022500021108100808088000420800080203F07BA
:102260008100808090000220800080202008810072
:102270008080500002208000822020108100808019
:1022800050004220800044202110810080902000D6
:102290004221000038F81E0FC7C3E0E020003C7E5A
:1022A00000000000000000000000400000000000EE
:1022B000000000000000000180000000000000009D
:1022C000000000000000000000000000000000000E
:1022D00000000000000000000025753A253032752E
:1022E00000253032753A2530327500257564202579
:1022F0003032753A25303275005A005900580009BD
:1023000020000F7C0020E000000000000000003FE3
:10231000FFF01122006110000000000000000038F2
:10232000007020220021100000000000000000309A
:10233000FC30203C002110000000000000000020C4
:10234000FC102028FC2110000000000000000020EC
:102350007810202400211000000000000000002060
:102360003010202400211000000000000000002C8C
:1023700000D011220021101FE00000104100002EAB
:1023800031D00E730070E03FF00000082080002F75
:102390007BD000000000003FF00000082080002FEC
:1023A0007BD000079F00003FF00000104100002E8E
:1023B00031D000089000001FE00000208200002CB7
:1023C00000D000081000001FE000004104000020C1
:1023D000301000041E00003FF00000410400002007
:1023E000781000031100003FF00000208200002060
:1023F000FC1000008100003FF000001041000030A0
:10240000FC3000009100000FC00000000000003808
:102410000070000891000007800000FFFFC0003F2F
:10242000FFF0000F0E000003000000FFFFC00000DF
:1024300000000F7C0020E000000000000000003FD2
:10244000FFF01122006110000000000000000038C1
:102450000070202200211000000000000000003366
:102460008730203C00211000000000000000002701
:1024700087902028FC211000000000000000002FA1
:1024800087D0202400211000000000000000002F51
:1024900087D0202400211000000000000000002F41
:1024A00003D011220021101FE0000008208000202E
:1024B00030100E730070E03FF00000041040002068
:1024C000781000000000003FF000000410400020E1
:1024D000781000079F00003FF000000820800020D7
:1024E000301000089000001FE00000104100002F95
:1024F00003D000081000001FE00000208200002F21
:1025000087D000041E00003FF00000208200002F52
:1025100087D000031100003FF000001041000027A9
:10252000879000008100003FF00000082080003309
:10253000873000009100000FC0000000000000384C
:102540000070000891000007800000FFFFC0003FFE
:10255000FFF0000F0E000003000000FFFFC00000AE
:1025600000005072696E7420706175736564004775
:10257000302046313230302058302059300000476A
:1025800030205A2573004D31303920532569004DD4
:1025900031343020532569004D31303620533235E7
:1025A00035004D31303920532569004D3139302007
:1025B00053256900447275636B20616267656272BE
:1025C0006F6368656E005769656465726175666EF4
:1025D00061686D65206E61636820556E7465726216
:1025E00072656368756E673F00A4A5F4F5CAF320B1
:1025F0003F005769656465726175666E61686D65F7
:10260000206E61636820556E7465726272656368DE
:10261000756E673F00424C546F7563682052657356
:10262000657400526573657420424C546F7563681D
:1026300000424C546F7563682052657365740042A4
:102640004C546F756368205465737400424C546F2A
:102650007563682053656C662D5465737400424C35
:10266000546F756368205465737400424C546F75E1
:1026700063682061757366616872656E0044657099
:102680006C6F7920424C546F75636800424C546FF4
:102690007563682061757366616872656E00424C8F
:1026A000546F7563682065696E66616872656E0057
:1026B00053746F7720424C546F75636800424C54DA
:1026C0006F7563682065696E66616872656E004D3E
:1026D00032383020503020533930004D32383020DD
:1026E000503020533130004D32383020503020539C
:1026F000313230004D3238302050302053313630B6
:1027000000496E666F00ECEDEEEF00496E666F00FB
:102710004A757374696572756E6700CFF0004A750B
:102720007374696572756E67005370726163686176
:1027300075737761686C004C616E677561676500E1
:102740005370726163686175737761686C0053449C
:102750002D447275636B20506175736500F1F2CA88
:10276000F30053442D447275636B2050617573659B
:102770000053442D4B6172746500AFB00053442D7B
:102780004B61727465004B65696E652053442D4B37
:102790006172746500F9A8004B65696E6520534449
:1027A0002D4B61727465004D363030204230004749
:1027B00065736368772E00D1D200476573636877CD
:1027C0002E00466C7573737261746500CCADD1D206
:1027D00000466C757373726174650042616279734F
:1027E000746570205A004261627973746570205A72
:1027F000004261627973746570205A00566F727777
:102800002E20504C4120457874722E00566F7277FE
:10281000C3A4726D656E20504C4120456E64005615
:102820006F72772E20504C4120457874722E0056DE
:102830006F72772E20504C41204265747400566FA1
:102840007277C3A4726D656E20504C4120C4C700DE
:10285000566F72772E20504C41204265747400569A
:102860006F72772E2041425320457874722E0056A5
:102870006F7277C3A4726D656E2041425320456E1E
:102880006400566F72772E2041425320457874724F
:102890002E00566F72772E20414253204265747489
:1028A00000566F7277C3A4726D656E20414253204B
:1028B000C4C700566F72772E204142532042657480
:1028C000740047323800486F6D6500BBBCBD0048DE
:1028D0006F6D6500486F6D65205800BBBCBD20580A
:1028E00000486F6D65205800486F6D65205900BB2A
:1028F000BCBD205900486F6D65205900486F6D655B
:10290000205A00BBBCBD205A00486F6D65205A009C
:1029100042657474204E6976656C6C696572756E7B
:102920006700B1B2CFD00042657474204E697665FD
:102930006C6C696572756E67004D34323800536592
:10294000747A6520486F6D657665727361747A007C
:10295000BEBFBBBCBDC0C1005365747A6520486F63
:102960006D657665727361747A004D6F746F726510
:102970006E206465616B746976696572656E00B519
:10298000B6B7B8B9BA004D6F746F72656E206465E2
:10299000616B746976696572656E0046696C616D1C
:1029A000656E74207765636873656C6E004368615B
:1029B0006E67652066696C616D656E740046696C52
:1029C000616D656E74207765636873656C6E004138
:1029D000626BC3BC686C656E00C8C90041626BC3A2
:1029E000BC686C656E00566F7277C3A4726D656EBD
:1029F00020504C4100C3C420504C4100566F7277A8
:102A0000C3A4726D656E20504C4100566F7277C33F
:102A1000A4726D656E2041425300C3C420414253ED
:102A200000566F7277C3A4726D656E2041425300E9
:102A30004D3834004732380A47323900473238209F
:102A40005A00473238205900473238205800426532
:102A5000776567656E00C1B2CE00426577656765D0
:102A60006E0031302C30206D6D00C1B22031306DE0
:102A70006D0031302C30206D6D0020312C30206DF8
:102A80006D00C1B220316D6D0020312C30206D6D94
:102A90000020302C31206D6D00C1B220302E316D00
:102AA0006D0020302C31206D6D0046696C616D65C4
:102AB0006E7400E0E10046696C616D656E74004201
:102AC0004C546F75636800424C546F7563680042E4
:102AD0004C546F756368004B6F6E6669672E206C8F
:102AE0006164656E004C6F6164206D656D6F727915
:102AF000004B6F6E6669672E206C6164656E0057CF
:102B000065726B7365696E7374656C6C756E676501
:102B10006E00496E697469616C697A65204545503B
:102B2000524F4D005765726B7365696E7374656CB7
:102B30006C756E67656E00446575747363680045F7
:102B40006E676C69736800446575747363680043ED
:102B500068696E657369736368004368696E65735D
:102B600065004368696E65736973636800566F72C8
:102B7000772E20504C412045696E73742E00566F9D
:102B80007277C3A4726D656E20504C4120BEBF00A9
:102B9000566F72772E20504C412045696E73742E0B
:102BA00000566F72772E204142532045696E737430
:102BB0002E00566F7277C3A4726D656E204142532A
:102BC00020BEBF00566F72772E20414253204569C8
:102BD0006E73742E0054656D706572617475720049
:102BE000C9D20054656D70657261747572004B6F67
:102BF0006E6669672E2073706569636865726E0022
:102C000053746F7265206D656D6F7279004B6F6ED6
:102C10006669672E2073706569636865726E005619
:102C2000206D6178205800566D617820580056203C
:102C30006D617820580056206D6178205900566DDE
:102C4000617820590056206D617820590056206D1A
:102C50006178205A00566D6178205A0056206D61C7
:102C600078205A0056206D6178204500566D6178B5
:102C700020450056206D617820450056206D696E14
:102C800000566D696E0056206D696E0056206D69A4
:102C90006E204C656572666168727400565472618C
:102CA00076206D696E0056206D696E204C656572E8
:102CB0006661687274004100416363656C004100A5
:102CC00041205265747261637400412D72657472A3
:102CD0006163740041205265747261637400412025
:102CE0004C656572666168727400412D747261761C
:102CF000656C0041204C65657266616872740041C4
:102D0000206D6178205800416D6178205800412085
:102D10006D617820580041206D6178205900416D27
:102D2000617820590041206D617820590041206D63
:102D30006178205A00416D6178205A0041206D6110
:102D400078205A0041206D6178204500416D6178FE
:102D500020450041206D6178204500562058204ACA
:102D600065726B0056782D6A65726B00562058208C
:102D70004A65726B00562059204A65726B0056797D
:102D80002D6A65726B00562059204A65726B005699
:102D9000205A204A65726B00567A2D6A65726B0064
:102DA00056205A204A65726B00562045204A6572AB
:102DB0006B0056652D6A65726B00562045204A658A
:102DC000726B00582053746570732F6D6D005873CB
:102DD000746570732F6D6D00582053746570732F78
:102DE0006D6D00592053746570732F6D6D005973AC
:102DF000746570732F6D6D00592053746570732F57
:102E00006D6D005A2053746570732F6D6D005A7389
:102E1000746570732F6D6D005A2053746570732F35
:102E20006D6D00452053746570732F6D6D00457393
:102E3000746570732F6D6D00452053746570732F2A
:102E40006D6D005A205665727361747A005A204F76
:102E50006666736574005A205665727361747A00F1
:102E6000476573636877696E6469676B6569740049
:102E700056656C6F63697479004765736368776939
:102E80006E6469676B6569740042657363686C653D
:102E9000756E6967756E6700416363656C65726125
:102EA00074696F6E0042657363686C65756E6967FF
:102EB000756E67004A65726B004A65726B004A6501
:102EC000726B0053746570732F6D6D005374657071
:102ED000732F6D6D0053746570732F6D6D004520F9
:102EE000696E206D6DC2B3004520696E206D6D3333
:102EF000004520696E206D6DC2B300442046696CA8
:102F00002E0046696C2E204469612E0044204669DB
:102F10006C2E004175730045696E0043616E6E6FE3
:102F20007420656E746572207375626469723A20EC
:102F300000022E2E00C39C6265722064656E2044E0
:102F40007275636B65720041626F757420507269AF
:102F50006E74657200C39C6265722064656E204465
:102F60007275636B65720045787472756465722062
:102F7000310045787472756465727320310045784C
:102F8000747275646572203100426175643A203153
:102F9000313532303000426175643A20313135329A
:102FA000303000426175643A2031313532303000C2
:102FB00052414D505320312E33007777772E63786E
:102FC000737733642E636F6D0043522D313020537D
:102FD0003500312E312E36424C5F56330043726538
:102FE000616C697479203344004845495A454E2044
:102FF0004645484C47455343484C4147454E004899
:10300000656174696E67206661696C656400484536
:10301000495A454E204645484C47455343484C4144
:1030200047454E004D696E2E2054656D7065726186
:10303000747572206973742020313730004D696EC9
:10304000696D756D2054656D70206973202031376E
:1030500030004D696E2E2054656D70657261747517
:1030600072206973742020313730005A7572C3BCE6
:10307000636B004261636B005A7572C3BC636B0083
:10308000464F5254532E204F5054494F4E454E3ABE
:1030900000524553554D45204F5054494F4E533AD9
:1030A00000464F5254532E204F5054494F4E454ED8
:1030B0003A00447275636B652077656974657200C8
:1030C000526573756D65207072696E740044727517
:1030D000636B6520776569746572004578747275F5
:1030E0006465206D6568720045787472756465204A
:1030F0006D6F72650045787472756465206D6568E2
:10310000720000060900FE0000000000010900082E
:10311000FE000005080806000040F0C8888898787E
:1031200010050808060000C0F88888888888F80517
:1031300005050600012030F83020050808060000CB
:103140002070F820202020E00509090600FF2070EB
:10315000A8A8B8888870200509090600FFE080C08B
:10316000B0A8283028280509090600FFF8A8888893
:10317000888888A8F8050A0A0600FE20505050509A
:1031800088A8A8887003030306000340A0405344A6
:103190002D4B617274652065726B616E6E7400A850
:1031A000A9AAAB0053442D4B617274652065726B04
:1031B000616E6E740053442D4B6172746520656EB0
:1031C000746665726E7400A8A9ACAD0053442D4BB3
:1031D0006172746520656E746665726E74004D6F01
:1031E00076696E672E2E2E004572723A2043686112
:1031F0006E67652046696C616D656E74005072691A
:103200006E7420706175736564004572723A204374
:1032100068616E67652046696C616D656E7400005B
:10322000002100240027002A002D00300033000177
:10323000010000040107010A010000220025002806
:10324000002B002E003100340002010000050108AF
:10325000010B01000020002300260029002C002F74
:103260000032000001000003010601090105050507
:1032700005070508080808020202020A0A080804ED
:10328000040404010101010101010103030303031B
:10329000030303040707070C0C0C0C0C0C0C0C02AA
:1032A00002020206060606060606060B0B0B0B0BB1
:1032B0000B0B0B01021020200808102040102040AA
:1032C00080020102010804020101020408102040EA
:1032D0008080402010080402018004020180402008
:1032E0001008040201080402010102040810204031
:1032F00080010204081020408000000A0B02090C23
:103300000D0E08070304010000000000000000008B
:1033100000000000000000000000000000000000AD
:10332000000000000012111000000000000000006A
:10333000000000000000000000000000000000206D
:1033400020506C616E6E6572427566666572427978
:103350007465733A20002046726565204D656D6F77
:1033600072793A2000436F6D70696C65643A20533E
:10337000657020323520323032320A00207C204104
:103380007574686F723A2054686F6D617320506174
:10339000756C757373656E0A00323032322D3039B8
:1033A0002D323500204C6173742055706461746552
:1033B000643A2000312E312E36424C5F56330A00DB
:1033C0004D61726C696E0020536F6674776172652F
:1033D0002052657365740A00205761746368646FD6
:1033E000672052657365740A002042726F776E2001
:1033F0006F75742052657365740A00204578746592
:10340000726E616C2052657365740A00506F776547
:103410007255700A0073746172740A006572726F7B
:10342000722077726974696E6720746F2066696CA8
:10343000650A00456E6473746F70732025632025E0
:103440006320256320256300205A3A0020593A0062
:1034500020583A00656E6473746F707320686974E5
:103460003A2000446F6E6520736176696E6720664E
:10347000696C652E0A004D32390050726F62696EB8
:1034800067206661696C65640A0050726F62696EDC
:1034900067206661696C656400205A3A20002059F3
:1034A0003A200042656420583A2000414E47454882
:1034B000414C54454E005072696E746572207374AD
:1034C0006F707065642064756520746F206572721A
:1034D0006F72732E20466978207468652065727259
:1034E0006F7220616E6420757365204D3939392003
:1034F000746F20726573746172742E202854656D28
:103500007065726174757265206973207265736588
:10351000742E20536574206974206166746572206E
:1035200072657374617274696E67290A0053544F2F
:10353000502063616C6C65642062656361757365BE
:10354000206F6620424C546F756368206572726FFD
:1035500072202D20726573746172742077697468AB
:10356000204D3939390A002E0A0044656C657469AA
:103570006F6E2862696E29206661696C6564004619
:10358000696C652862696E292064656C6574656480
:103590000057726974696E6720746F2066696C6584
:1035A0003A20006F70656E206661696C65642C203E
:1035B00046696C653A20006F70656E206661696CC3
:1035C00065642C2046696C653A200046696C65206C
:1035D00073656C65637465640A002053697A653AA3
:1035E000200046696C65206F70656E65643A200046
:1035F0006F70656E206661696C65642C2046696C2D
:10360000653A20002066696C653A20004E6F77208D
:10361000002220706F73002220706172656E743A10
:103620002200535542524F5554494E452043414C78
:103630004C207461726765743A22004142474542EA
:10364000524F4348454E00747279696E6720746F1B
:103650002063616C6C207375622D67636F646520F5
:1036600066696C6573207769746820746F6F206D6C
:10367000616E79206C6576656C732E204D41582003
:103680006C6576656C2069733A0043616E6E6F7489
:10369000206F70656E2073756264697220005446F5
:1036A0002063617264206F6B0A006F70656E526FE9
:1036B0006F74206661696C65640A00766F6C756D65
:1036C000652E696E6974206661696C65640A0045DF
:1036D00072726F723A00544620696E697420666196
:1036E000696C0A006175746F25692E67004D32346C
:1036F000004D323320257300656E717565756569FF
:103700006E672022006563686F3A002E0A006F70B2
:10371000656E206661696C65642C2046696C653A4B
:10372000200057726974696E6720746F2066696C37
:10373000653A2000000C0B00FE070192032120FFD8
:10374000FF0AFF07FF00000006000A010707060244
:103750000080808080800080030202060105A0A016
:103760000507070600005050F850F85050050707AD
:103770000600002078A07028F0200507070600004A
:10378000C0C810204098180507070600006090A0E8
:1037900040A89068020303060104C04080030707A5
:1037A00006010020408080804020030707060100BA
:1037B0008040202020408005050506000120A870DB
:1037C000A8200505050600012020F820200203039B
:1037D0000602FFC04080050101060003F802020254
:1037E000060200C0C0050505060001081020408043
:1037F000050707060000708898A8C88870030707A7
:1038000006010040C040404040E0050707060000B8
:10381000708808708080F8050707060000F81020FF
:10382000100808F005070706000010305090F81047
:1038300010050707060000F880F0080888700507E3
:1038400007060000708080F0888870050707060072
:1038500000F80810202020200507070600007088C7
:1038600088708888700507070600007088887808C7
:103870000870020505060200C0C000C0C0020606AE
:103880000602FFC0C000C040800407070600001009
:10389000204080402010050303060002F800F804D1
:1038A000070706000080402010204080050707061B
:1038B000000070880810200020050707060000702F
:1038C000880868A8A870050707060000708888F8AF
:1038D000888888050707060000F08888F08888F047
:1038E000050707060000708880808088700507073C
:1038F000060000F08888888888F005070706000021
:10390000F88080F08080F8050707060000F88080C6
:10391000F0808080050707060000708880B88888DE
:1039200070050707060000888888F88888880107DE
:1039300007060200808080808080800507070600DF
:1039400000381010101090600507070600008890DE
:10395000A0C0A090880507070600008080808080B6
:1039600080F805070706000088D8A8888888880599
:1039700007070600008888C8A898888805070706F2
:10398000000070888888888870050707060000F0A6
:103990008888F08080800507070600007088888886
:1039A000A89068050707060000F08888F0A09088B6
:1039B000050707060000788080700808F0050707F3
:1039C000060000F820202020202005070706000020
:1039D0008888888888887005070706000088888896
:1039E000888850200507070600008888888888A8EE
:1039F0005005070706000088885020508888050772
:103A00000706000088888850202020050707060048
:103A100000F80810204080F8030707060000E08047
:103A200080808080E00505050600018040201008A8
:103A3000030707060000E02020202020E005030304
:103A4000060004205088050101060000F802020269
:103A50000602058040050505060000700878887894
:103A60000507070600008080B0C88888F0050505B6
:103A700006000070808088700507070600000808AF
:103A800068988888780505050600007088F88070B9
:103A90000507070600003048E040404040050606A4
:103AA0000600FF7088887808700507070600008008
:103AB00080B0C888888801070706020080008080DF
:103AC0008080800308080601FF200020202020A01D
:103AD00040040707060100808090A0C0A090030763
:103AE00007060100C04040404040E00505050600D3
:103AF00000D0A8A8A8A8050505060000B0C88888B9
:103B00008805050506000070888888700506060689
:103B100000FFF08888F080800506060600FF7888A0
:103B200088780808050505060000B0C88080800573
:103B3000050506000070807008F004070706000005
:103B40004040E04040403005050506000088888878
:103B50009868050505060000888888502005050539
:103B60000600008888A8A8500505050600008850B2
:103B70002050880506060600FF88888878087005AA
:103B80000505060000F8102040F8030707060100AD
:103B900020404080404020010707060200808080CE
:103BA000808080800307070601008040402040405D
:103BB00080050202060003689000000006000A006B
:103BC00000000C000A0000000C000A0000000C00BD
:103BD0000A0000000C000A0000000C000A000000AF
:103BE0000C000A0000000C000A0000000C000A0093
:103BF00000000C000A0000000C000A0000000C008D
:103C00000A0000000C000A0000000C000A0000007E
:103C10000C000A0000000C000A0000000C000A0062
:103C200000000C000A0000000C000A0000000C005C
:103C30000A0000000C000A0000000C000A0000004E
:103C40000C000A0000000C000A0000000C000A0032
:103C500000000C000A0000000C000A0000000C002C
:103C60000A0000000C000A0000000C000A0B0B16F2
:103C70000C00FFFFE00200020004000D001480248D
:103C800040C4200400040004000B0B160C00FFF9D4
:103C9000008A00ABE0AC40AA40AA40AA40AA80211A
:103CA0000052808C600B0B160C00FF240024003F98
:103CB00080440084000400FFE00A0011002080C05E
:103CC000600B0B160C00FF240024003FC0440004CE
:103CD00000FFE0090009001120212040E00B0B1635
:103CE0000C00FF20003DE0512091201120FF201109
:103CF00020292025E0452080000B0B160C00FF201A
:103D0000807FC00840FFE0110020805F4080203F9E
:103D10008000007FC00B0B160C00FF224047E09490
:103D200080E4802FE04480F48007E03480C4800782
:103D3000E00B0B160C00FF04808FE0490019002FE8
:103D4000C0090009002FC0490089000FE00B0B16C5
:103D50000C00FF10003F8051000E003180C0603F1A
:103D60008024803F8024803F800B0B160C00FF22B4
:103D700080FA4007E0FA808A808A80FA802280B246
:103D800080AAA064E00B0B160C00FF222047409293
:103D900080EFE0220047C0EC4007C03440C7C004B9
:103DA000400B0B160C00FF08000FC008000800FFB6
:103DB000E008000E0009800840080008000A0B1601
:103DC0000C00FFFF800080008080808080FF80806A
:103DD000008000804080407FC00B0B160C00FF4726
:103DE000C04100EFE0410045006960C9204D6049D5
:103DF000204FE0C8200B0B160C00FF080004000445
:103E0000000A000A000A00110011002080404080D2
:103E1000200B0B160C00FF22402200F7E0220023AB
:103E2000E03520E52025402880294072200B0A1427
:103E30000C00004440444044407FC004000400841F
:103E40002084208420FFE00B0B160C00FF040000F0
:103E5000007FC00400040004007FC00400040004CC
:103E600000FFE00B0B160C00FFFFE0110001C0FE8D
:103E700000488025000400FFE015002480C4600B8A
:103E80000B160C00FF11007FC044407FC044407FF0
:103E9000C00400FFE0040004000400090B160C003D
:103EA000FF1000FF8080808080FF8080808080FF06
:103EB0008080808080FF800B0B160C00FF7100015A
:103EC0000003E0F9202120412051208920FA20021E
:103ED0002004C00B0B160C00FF7FC0110011001155
:103EE000001100FFE0110011002100210041000B32
:103EF0000B160C00FF21002200F44057E050205721
:103F0000C094405440244057C094400B0B160C0002
:103F1000FF11000A007FC004000400FFE004000A53
:103F20000011002080C0600A0B160C00FF5FC0006B
:103F30004084408440BF4084408C409440A4408CE6
:103F40004081C00B0B160C00FF240027C024002466
:103F500000FFE000001440248047000C0070000BBC
:103F60000B160C00FF248004800FC0E48024803FE7
:103F7000E024802480288050008FE00B0B160C007A
:103F8000FF08000800FF8088808880FF8088808884
:103F900080FFA0882007E00B0B160C00FF27802471
:103FA00080F480248074806C80A480248024A028E5
:103FB000A030600A0B160C00FFFFC0804080409EBE
:103FC00040924092409E4080408040FFC080400B25
:103FD0000B160C00FF7FC044005FC050405FC05014
:103FE000405FC042004A805240A6200B0B160C00D6
:103FF000FF040007E004007FC04040404040407F95
:10400000C00000524089200B0B160C00FF47802493
:104010008004800480E86020002FC024402280318A
:104020000026C00B0B160C00FF7FC04A407FC00467
:1040300000FFE004003F80208024802480FFE00B0C
:104040000B160C00FF22004FE048204FE0C8004F45
:10405000E04AA05AA06FE04AA048600B0B160C0083
:10406000FFF3C024402A80F100228065E07220A581
:1040700040208023002C000B0B160C00FF0400FFD7
:10408000E080200000FFE00400240027C02400544A
:10409000008FE00B0B160C00FF73E0108051002323
:1040A000E0FA202AA022A022A02080214062200B3A
:1040B0000B160C00FF2200F78022803680E2A0253C
:1040C000A0246068200000524089200B0B160C00D1
:1040D000FF73C0420042007BE04A404A407A404AB7
:1040E000404240444088400B0B160C00FF0800FF84
:1040F000E008001FC030405FC090401FC01040105B
:104100004010C00B0B160C00FF02007FE042004283
:10411000005FC0420047004A805240622082000B8C
:104120000B160C00FFF3C096409180A660A100978B
:10413000C091009500E7E0810081000B0B160C0098
:10414000FF0F8088804F8008808F8040001FC0351F
:1041500040554095403FE00B0B160C00FF27E02038
:1041600080F880208020803880E08020802080209F
:104170008061800B0B160C00FF1FE0910057C014EC
:104180004017C0944057C011005540992023000BA0
:104190000B160C00FF208027E0F2402180224034E3
:1041A00020E24022402240224064400B0B160C00CB
:1041B000FF410041004FE0E920492049206FE0C95C
:1041C0002049204920CFE00B0B160C00FF2100F105
:1041D000004FE0A920F9202FE03920E92029202FE5
:1041E000E028200B0B160C00FF8FE049200920CBA4
:1041F000A049204FE048204BA04AA06BA050E00B04
:104200000B160C00FF7FC0040044402440248004AF
:1042100000FFE004000400040004000B0B160C0077
:10422000FF820042001FE0C2005FC052405FC047F3
:10423000004A805240BFE00B0B160C00FF04007FC9
:10424000E048807FE048804F8040005FC0484047A2
:104250008098600B0B160C00FF0100EFE0A100A49A
:1042600040AFE0A440AFE0A920E92002800C600B41
:104270000B160C00FF14C0F6A0BC60A780A880BF7E
:10428000E0A920EFE009200FE009200B0B160C003D
:10429000FF7F804080428062805480488048805404
:1042A000A062A0406080200B0B160C00FF04007F72
:1042B000E040207FE040007DE054204CA05460644A
:1042C000A08D600B0B160C00FF82005FE00400085D
:1042D000409FE040200A800A804AA092A022600B02
:1042E0000B160C00FF41004FE0E82042804440687C
:1042F00020C7C0410041004100CFE00B0B160C006D
:10430000FF50207D209120FF2011207D2055205539
:104310002054205C2010E00B0B160C00FF3F802087
:10432000803F802080FFE048007BC04940794048C2
:1043300080FB600B0B160C00FF040004000400243B
:10434000802440444044208420040004001C000BCE
:104350000B160C00FF040004000400FFE004000A38
:10436000000A00110011002080C060090A140A0030
:1043700000888049000800FF80008000807F800066
:10438000800080FF800B0B160C00FF21001200FF45
:10439000E0000078804A807A804A807A804880599C
:1043A000800B0B160C00FF27C000000000EFE0217F
:1043B00000220024402FE0202050008FE00B0B163D
:1043C0000C00FF20802700F90021C077002100F9B0
:1043D000E027007120A92020E00B0B160C00FF1035
:1043E000401040FDE0104038C0354052409440102D
:1043F00040104010C00B0B160C00FF0040F8400BA3
:10440000E008408840524051402140504048408997
:10441000C00A0B160C00FF840084408480F50086DF
:1044200000840084009400A440C44083C00B0B1699
:104430000C00FF11207D001100FFE02900FD404924
:10444000407C8008A0FD600A200B0B160C00FF17B3
:10445000C02440244067C0A1002FE0210023802514
:1044600040292021000B0B160C00FF0800FFE01074
:104470000027C020806100AFE0210021002100233F
:10448000000B0B160C00FF24002FE0B400A480A446
:10449000A0AAC02A8028802940324024200B0B1675
:1044A0000C00FF7FE080003FC020403FC010001F95
:1044B000C010402880470038E00B0B160C00FF7F2F
:1044C000E04000400040004000400040004000400C
:1044D00000400080000B0B160C00FFFFE004007F83
:1044E000C044407FC044407FC0440024001800E71F
:1044F000E00B0B160C00FF11E0FD00450029E0FD6C
:104500004011407D4011405540924034400B0B1605
:104510000C00FF21005FE04000CFC040004FC040D2
:10452000004FC048404FC048400B0B160C00FF0422
:10453000007FC040407FC040407FC040407FC004FB
:10454000405220BFA00B0B160C00FF7FC044407FE1
:10455000C044407FC004001B00E0E0110011006176
:10456000000B0B160C00FFFFE0040008007FE04981
:10457000204F2049204F20492049207FE00B0B1677
:104580000C00FFFDE056407940388055409220FFF6
:10459000E0040027C02400FFE00B0B160C00FFFB1B
:1045A0008052007BE01240FA4014403F8020803F60
:1045B0008020803F800B0B160C00FF1FE02000279F
:1045C000C06440A7C020002FE0282027C02100237E
:1045D000000B0B160C00FFF3E082208220FA2082F1
:1045E0002082208A20B220C2E0020002000B0B16BB
:1045F0000C00FF248046A095C0E48027E04480F5AD
:10460000C006A03480C48007E00B0B160C00FF2707
:10461000C0410087E0E02022804580F2800FE0303A
:1046200080C14002200B0B160C00FF02000200228A
:104630000023C0220022002200220022002200FFCC
:10464000E0090B160C00FF08000800FF8088808836
:10465000808880FF80888088808880FF800B0B1690
:104660000C00FF210053A04100F7E0510053C05659
:104670004053C05A4053C042400B0B160C00FF7F02
:10468000C0040004000400FFE00A000A0012002237
:1046900020422081E00B0B160C00FF110021002F9F
:1046A000E06100A3802380254025402920210021AE
:1046B000000B0B160C00FFF7E09420F42097E09419
:1046C00080F48097E09480F4A0966004200B0B1691
:1046D0000C00FF7BE0948004007FC00400FFE00139
:1046E00000FFE02100110007000B0B160C00FF215A
:1046F0000047C091002FE06080AFE020802480223E
:1047000080208023800B0B160C00FF27C02440F76D
:10471000C02EE02AA03EE0E1002FE0238025406982
:10472000200B0B160C00FF140027E02A006200A3E8
:10473000C02200220023E0220022002200000609FD
:1047400000FE070192032120FFFF08FF07FF000082
:1047500000060000010707060200808080808000BC
:1047600080030202060105A0A0050707060000500D
:1047700050F850F850500507070600002078A07048
:1047800028F020050707060000C0C8102040981830
:104790000507070600006090A040A8906802030388
:1047A000060104C040800307070601002040808006
:1047B0008040200307070601008040202020408021
:1047C00005050506000120A870A8200505050600BE
:1047D000012020F820200203030602FFC0408005CC
:1047E0000101060003F8020202060200C0C005052E
:1047F000050600010810204080050707060000702C
:1048000088888888887003070706010040C04040F8
:104810004040E0050707060000708808708080F8B7
:10482000050707060000F81020100808F005070724
:1048300006000010305090F8101005070706000021
:10484000F880F0080888700507070600007080806F
:10485000F0888870050707060000F808102020205F
:104860002005070706000070888870888870050793
:10487000070600007088887808087002050506029F
:1048800000C0C000C0C00206060602FFC0C000C0D3
:1048900040800407070600001020408040201005DB
:1048A0000303060002F800F8040707060100804031
:1048B000201020408005070706000070880810209F
:1048C000002005070706000070880868A8A8700582
:1048D0000707060000708888F8888888050707069B
:1048E0000000F08888F08888F0050707060000704F
:1048F000888080808870050707060000F088888817
:104900008888F0050707060000F88080F08080F8AE
:10491000050707060000F88080F080808005070703
:10492000060000708880B8888870050707060000B8
:10493000888888F8888888010707060200808080B8
:104940008080808005070706000038101010109046
:10495000600507070600008890A0C0A090880507A2
:1049600007060000808080808080F8050707060029
:104970000088D8A8888888880507070600008888E6
:10498000C8A8988888050707060000708888888866
:104990008870050707060000F08888F08080800591
:1049A000070706000070888888A890680507070632
:1049B0000000F08888F0A0908805070706000078BE
:1049C0008080700808F0050707060000F820202006
:1049D00020202005070706000088888888888870BE
:1049E0000507070600008888888888502005070783
:1049F0000600008888888888A850050707060000F8
:104A00008888502050888805070706000088888815
:104A100050202020050707060000F80810204080DD
:104A2000F8030707060100E08080808080E005052C
:104A3000050600018040201008030707060100E07A
:104A40002020202020E005030306000420508805D4
:104A50000101060000F80202020602058040050579
:104A600005060000700878887805070706000080B2
:104A700080B0C88888F00505050600007080808831
:104A800070050707060000080868988888780505FB
:104A9000050600007088F8807005070706000030E2
:104AA00048E0404040400506060600FF70888878D0
:104AB00008700507070600008080B0C88888880154
:104AC00007070602008000808080808003080806B7
:104AD00001FF200020202020A0400407070600003E
:104AE000808090A0C0A090030707060100C040404E
:104AF000404040E0050505060000D0A8A8A8A8058C
:104B00000505060000B0C888888805050506000070
:104B100070888888700506060600FFF08888F08097
:104B2000800506060600FF788888780808050505D0
:104B3000060000B0C8808080050505060000708072
:104B40007008F00407070600004040E04040403095
:104B50000505050600008888889868050505060093
:104B60000088888850200505050600008888A8A8C8
:104B700050050505060000885020508805060606E9
:104B800000FF888888780870050505060000F81081
:104B90002040F803070706010020404080404020E5
:104BA000010707060200808080808080800307075D
:104BB00006010080404020404080050202060002BD
:104BC00068900000000600000000000600000000E1
:104BD00000060000000000060000000000060000C3
:104BE00000000006000000000006000000000006B3
:104BF00000000000000600000000000600000000A9
:104C00000006000000000006000000000006000092
:104C10000000000600000000000600000000000682
:104C20000000000000060000000000060000000078
:104C30000006000000000006000000000006000062
:104C40000000000600000000000600000000000652
:104C50000000000000060000000000060000000048
:104C60000006000000000006000000000006000032
:104C70000000000600000000000600000000000622
:104C80000000000000060000000000060000010710
:104C900007060200800080808080800507070600EC
:104CA000002070A8A0A8702005070706000030406B
:104CB00040E04050A8050505060000887050708847
:104CC000050707060000885020F820F82001070794
:104CD00006020080808000808080050808060000B1
:104CE0003048205050209060030101060107A005C4
:104CF0000707060000F888B8B8B888F8050707065F
:104D00000001700878887800F8050505060001287C
:104D100050A05028050303060001F808080202020B
:104D20000602064080050707060000F888A8889854
:104D3000A8F8050101060006F80404040600036053
:104D40009090600507070600002020F8202000F85A
:104D500004050506000360902040F00305050600E9
:104D600003E020E020E0020202060206408005087F
:104D7000080600FF8888888898E88080050707066D
:104D8000000078989878181818020202060202C0EB
:104D9000C00202020602FF40800305050600034030
:104DA000C04040E005070706000170888888700051
:104DB000F8050505060001A0502850A005070706C4
:104DC00000008890A858B808080507070600008862
:104DD00090B848982038050808060000C040C04830
:104DE000D838080805070706000020002040808802
:104DF000700508080600004020007088F8888805C3
:104E000008080600001020007088F8888805080847
:104E10000600002050007088F88888050808060001
:104E2000006890007088F88888050808060000501F
:104E300000708888F888880508080600002050203F
:104E40007088F888880507070600003860A0B8E079
:104E5000A0B80508080600FF708880808870206070
:104E6000050808060000402000F880F080F80508DA
:104E700008060000081000F880F080F80508080611
:104E80000000205000F880F080F8050707060000B9
:104E90005000F880F080F803080806010080400008
:104EA000E0404040E0030808060100204000E040E8
:104EB0004040E003080806010040A000E0404040F8
:104EC000E0030707060100A000E0404040E00507BE
:104ED00007060000704848E84848700508080600C2
:104EE0000068900088C8A898880508080600004057
:104EF00020708888888870050808060000102070D7
:104F0000888888887005080806000020500070888E
:104F100088887005080806000068900070888888F6
:104F200070050808060000500070888888887005A1
:104F3000050506000188502050880508080600FF76
:104F40001070A8A8A8A87040050808060000402016
:104F500088888888887005080806000010208888DE
:104F60008888887005080806000020500088888816
:104F700088700508080600005000888888888870B6
:104F80000508080600001020885020202020050970
:104F9000090600FFC040704848704040E00408081F
:104FA0000601FF609090A09090E080050808060040
:104FB0000040200070087888780508080600001076
:104FC0002000700878887805080806000020500046
:104FD0007008788878050808060000689000700856
:104FE00078887805070706000050007008788878F0
:104FF000050808060000205020700878887805060B
:1050000006060000D02878A0A8500506060600FF76
:10501000708088702060050808060000402000703D
:1050200088F880700508080600001020007088F8D5
:1050300080700508080600002050007088F8807015
:1050400005070706000050007088F8807003080804
:1050500006010080400040C04040E003080806010F
:105060000020400040C04040E00308080601004026
:10507000A00040C04040E0030707060100A0004038
:10508000C04040E0050707060000A040A010788857
:1050900070050808060000689000B0C88888880578
:1050A00008080600004020007088888870050808FD
:1050B0000600001020007088888870050808060027
:1050C0000020500070888888700508080600006875
:1050D00090007088888870050707060000500070EF
:1050E000888888700505050600012000F800200565
:1050F00007070600FF1070A8A8A87040050808065A
:10510000000040200088888898680508080600008C
:10511000102000888888986805080806000020503C
:10512000008888889868050707060000500088886E
:105130008898680509090600FF102000888888F80B
:1051400008700407070601FFC04060506040E0059A
:1051500008080600FF5000888888780870006A01F7
:10516000CA0011241FBECFEFD1E2DEBFCDBF00E0E9
:105170000CBF15E0A0E0B2E0E4E5F5E602E00BBF0D
:1051800002C007900D92AE3CB107D9F72EE1AEEC0C
:10519000B5E001C01D92A530B207E1F718E2C0EBFF
:1051A000D8E200E006C021970109802FFE010F948C
:1051B0000E32CF3AD10780E00807A9F70F94761D89
:1051C0000D9498320C940000880F991F880F991F36
:1051D000FC01E55CFA4E40815181628173818F54FC
:1051E0009E4EFC014083518362837383E0913B10A8
:1051F000F0913C1082899389A489B58980933710F6
:1052000090933810A0933910B0933A100895CF932B
:10521000DF932FB7F894AC01440F551F440F551F6F
:10522000FA01E55CFA4E60817181828193812FBF22
:10523000EA01CF55DE4E0F94F527288139814A8146
:105240005B810F945428DF91CF91089590916E194E
:1052500080916F19981731F080916F198F5F8F705F
:1052600080936F1908958091801181111AC0609107
:105270004B0270914C02072E000C880B990B0F9477
:10528000F5279B01AC016091061970910719809177
:105290000819909109190F94EE27881F8827881FF5
:1052A000089580E00895EF92FF920F931F93CF939C
:1052B000DF93E0903B10F0903C10F70182819381E6
:1052C000A481B581181619061A061B06E4F480910C
:1052D000301080FF18C08091140B9CB195FB99276A
:1052E00090F98E7F89278093140B9091130B917006
:1052F000892349F08091BD1181608093BD1190E0B8
:1053000080E00E94E428F70186819781A085B1851D
:10531000181619061A061B061CF58091301081FF1D
:105320001FC08091140B9091030191FB002700F99D
:1053300010E01195019511090827027011278027A7
:105340008093140B0091130B0270082349F0809195
:10535000BD1182608093BD1181E090E00E94E4283D
:10536000F70182859385A485B585181619061A0656
:105370001B0644F58091301082FF24C080918C116F
:10538000882301F18091140B99B193FB992790F92F
:10539000C92FF0E0DF2FD195C195D109C827C4707E
:1053A000DD278C278093140BC091130BC470C82386
:1053B00049F08091BD1184608093BD1182E090E03E
:1053C0000E94E4288091140B8093130BDF91CF91FE
:1053D0001F910F91FF90EF900895CF92DF92EF927F
:1053E000FF92CF93DF93EC01C0903202D090330252
:1053F000E0903402F0903502A7019601688179812E
:105400008A819B810F942831181624F4C882D9828E
:10541000EA82FB82C0903602D0903702E0903802D8
:10542000F0903902A70196016C817D818E819F8168
:105430000F942831181624F4CC82DD82EE82FF828C
:10544000C0903A02D0903B02E0903C02F0903D02C6
:10545000A7019601688579858A859B850F942831F7
:10546000181624F4C886D986EA86FB86DF91CF9188
:10547000FF90EF90DF90CF900895129A08955F9A71
:10548000E9E8F1E110828A9A11829FB7F894A8E0C6
:10549000B1E08C9181608C939FBF12820C943D2A65
:1054A000CF92DF92EF92FF92C090F310D090F41061
:1054B000E090F510F090F6108091F710882381F1BC
:1054C00020E030E0A901C701B6010F94EE27882340
:1054D00039F120E030E040E05FE3C701B6010F940E
:1054E00054289B01AC010F9454282BED3FE049E474
:1054F00050E40F9454289B01AC0160E070E080E818
:105500009FE30F94C22F6093270B7093280B809317
:10551000290B90932A0BFF90EF90DF90CF90089586
:1055200060E070E080E89FE3EECFCF92DF92EF92F1
:10553000FF9260910E0B70910F0B072E000C880BE1
:10554000990B0F94F5276B017C012DEB37E346E8AF
:1055500055EB0F94283187FD0BC02DEB37E346E860
:1055600055E3C701B6010F94EE2718160CF043C09F
:10557000A701960160E070E080E89FE30F94C22FDE
:1055800060933E0770933F078093400790934107D5
:105590006091100B7091110B072E000C880B990B6A
:1055A0000F94F5276B017C012DEB37E346E855EBB3
:1055B0000F94283187FD0AC02DEB37E346E855E309
:1055C000C701B6010F94EE271816CCF4A701960177
:1055D00060E070E080E89FE30F94C22F6093420781
:1055E000709343078093440790934507FF90EF9093
:1055F000DF90CF90089560E070E0CB01C1CF60E014
:1056000070E0CB01EBCF80E1EBE4F5E1A9EFBAE08C
:1056100001900D928A95E1F7089580E1E9EFFAE0B3
:10562000ABE4B5E101900D928A95E1F70895CF9230
:10563000DF92EF92FF920F931F93CF93DF93EC01D2
:10564000CC0FDD1FCC0FDD1FFE01E357FE4E20E027
:1056500030E0A90160817181828193810F94C82E0D
:10566000FE01E351F54F20813181428153810F9436
:10567000C82E6B017C01FE01E252FE4EC082D18237
:10568000E282F382FE01EE5EF94F2591359145915C
:1056900054918E010858194F0F94C82EF801608359
:1056A000718382839383FE01E25EF94F25913591E8
:1056B00045915491CE5CDD4FC701B6010F94C82EC1
:1056C000688379838A839B83DF91CF911F910F91A8
:1056D000FF90EF90DF90CF9008958F929F92AF92BE
:1056E000BF92EF92FF920F931F93CF93DF938C01A2
:1056F0004A015B01EC01CC0FDD1FCC0FDD1FCE0199
:10570000855B9A4E7C01C357DE4E288139814A81E0
:105710005B81CB01B4010F94C72EF7012081318149
:10572000428153810F94C82EF70160837183828375
:10573000938388829982AA82BB82C801DF91CF912C
:105740001F910F91FF90EF90BF90AF909F908F901F
:105750000C94172B2FEB280F2A3168F5422F50E0BD
:10576000FA0183E0F595E7958A95E1F7EF58F94F4F
:105770009081892F90E0277002C0959587952A9592
:10578000E2F780FD02C081700895495A594FFA012D
:105790008081882369F02091590730915A07820F40
:1057A000932F911D9093CF058093CE0581E00895AE
:1057B00090E080E0F7CF80E008950E94AA2B882334
:1057C00041F081E02091CE053091CF05232B09F4E3
:1057D00080E00895089590E080E008958FB7F894F0
:1057E00090910D0720910C07291769F0E92FF0E03F
:1057F000E457F94F208130E09F5F9F7790930D072A
:105800008FBFC90108952FEF3FEFFACFDF92EF92DC
:10581000FF920F931F93CF93DF93EC01D62E1CAD15
:105820000BAD7C0184E0E80EF11CE98DFA8DC70117
:105830001995412F480F2D2D602FC7010F9408088F
:105840009BAD890F8BAF81E090E0DF91CF911F91ED
:105850000F91FF90EF90DF9008950F931F93CF93D8
:10586000DF93EC010F946A020E811F812885398530
:10587000011511052105310579F52C85222339F112
:10588000EA8521502C8721E02E0F2A873D8523139E
:1058900001C01A86F0E03196EE0FFF1FEE0FFF1FDA
:1058A000EC0FFD1F02851385248535850A831B8334
:1058B0002C833D83600F711F811D911D6E837F833B
:1058C000888799878C819D81892B09F0409ADF9187
:1058D000CF911F910F910895601B710B820B930B59
:1058E00097FDF5CF40981E821F8218861986EFCF4C
:1058F000CF92DF92EF92FF920F931F93CF93DF939C
:105900006B017A01EC01C15CD44F28813CE0389FE7
:105910008001399F100D112427FF24C0FB01118243
:10592000108288818F5F888388819801280F311DBC
:1059300087FD3A95C9012091DC19F601281719064F
:1059400029F024F088818C300CF43CC08081918156
:10595000049680349C4908F475C0F60180819181D9
:10596000049672C088819801280F311D87FD3A95F1
:10597000C9012091DC192817190699F294F288813F
:10598000A801480F511D87FD5A95FA01EE0FFF1F20
:10599000E40FF51FE059F64E808186FFC2CF888163
:1059A000F801E80FF11D87FDFA95CF01EE0FFF1FFB
:1059B000E80FF91FE059F64E808160E08F730F9475
:1059C0008200AFCF808191812881A801420F511DB3
:1059D00027FD5A959A01FA01EE0FFF1FE20FF31F00
:1059E000E059F64E21813281820F931FF701918396
:1059F000808388819801280F311D87FD3A95F90130
:105A0000EE0FFF1FE20FF31FE059F64E808186FF75
:105A100020C08881080F111D87FD1A95F801EE0F2F
:105A2000FF1FE00FF11FE059F64E808161E08F7398
:105A3000DF91CF911F910F91FF90EF90DF90CF906A
:105A40000D94820080E49CE9F701918380838FEFBD
:105A50008883DF91CF911F910F91FF90EF90DF909E
:105A6000CF9008954F925F926F927F92AF92BF92C4
:105A7000CF92DF92EF92FF920F931F93CF93DF931A
:105A80008C01EB01FC0147A050A461A472A4AFA05B
:105A9000B8A4C9A4DAA49501A601C301B2010F9468
:105AA000EE2787FF3EC0A3019201C301B2010F940C
:105AB00054282B013C01F80163A974A985A996A972
:105AC00090589B01AC010F94C82EF80127A530A96E
:105AD00041A952A90F9454289B01AC01C301B20102
